:1000000001C21BC21AC219C218C217C216C215C237
:1000100014C213C212C211C210C20FC20EC20DC24C
:100020000CC20BC20AC205A84CCDB2D44EB93836A8
:10003000A9020C50B9918688083CA6AAAA2ABE003B
:100040000000803F000000000000005F000000078B
:10005000000700147F147F14242A7F2A1223130818
:10006000646236495522500005030000001C2241FD
:10007000000041221C00082A1C2A0808083E080823
:1000800000503000000808080808006060000020E8
:10009000100804023E5149453E00427F4000426143
:1000A0005149462141454B311814127F10274545CF
:1000B00045393C4A494930017109050336494949E6
:1000C00036064949291E0036360000005636000023
:1000D00000081422411414141414412214080002BC
:1000E00001510906324979413E7E1111117E7F4945
:1000F0004949363E414141227F4141221C7F4949C5
:1001000049417F090901013E414151327F080808F8
:100110007F00417F41002040413F017F0814224180
:100120007F404040407F0204027F7F0408107F3EF2
:100130004141413E7F090909063E4151215E7F0947
:10014000192946464949493101017F01013F404093
:10015000403F1F2040201F7F2018207F6314081479
:10016000630304780403615149454300007F414122
:10017000020408102041417F0000040201020440F3
:1001800040404040000102040020545454787F480D
:100190004444383844444420384444487F38545414
:1001A0005418087E090102081454543C7F080404C2
:1001B0007800447D40002040443D00007F102844EA
:1001C00000417F40007C041804787C0804047838DF
:1001D000444444387C14141408081414187C7C0813
:1001E0000404084854545420043F4440203C4040F8
:1001F000207C1C2040201C3C4030403C44281028DF
:10020000440C5050503C4464544C440000000000E6
:1002100000221C00000000000000000000000000A0
:100220000000006B1400000000000041000000000E
:1002300000000000007F553E0800000000000000A4
:100240000000000000000063637F7F0000000000EA
:10025000000000005500000000002A55007F00004B
:1002600000000000000000000000005028140A05F3
:100270000020100804020000000000000000081424
:1002800008080800000800000000001C0000007FB3
:100290004141417F000000000000000000081C00F8
:1002A00000081C36637F1C000000000000000000F6
:1002B0000063002A1C36631C0000000000000000E0
:1002C000000000000013264C193264204000000199
:1002D000020000000000003E0C183E007F000000FD
:1002E0000000000000001C00003E081C0000000090
:1002F0001400007F000000000000007F55495541B8
:100300007F000000002200000000000000552A5578
:100310002A552A0000000000000000000000002A0A
:100320007F017F407F5500000000000000000000BA
:10033000002A55002A0000552A5500000000000040
:10034000001C001C2A3E36220000000000001C0099
:1003500000000000000103070F1F3F0204081020E7
:10036000400000000000000041004100637F007F6A
:10037000007F00000000000000030F0F0F0F0F00B0
:10038000101010101000001C1C00007F63636363DA
:100390007F0000000000000000000000007F7F7F61
:1003A0007F7F7F0000000000007F404F40407E00C4
:1003B00008102A15010000000000007F0000000066
:1003C0000000001C1C0008007F63637F41222200A4
:1003D00000221C081C3E141C00000000000000004D
:1003E00014080814007F6B77776B7F000000000013
:1003F00000000000006300552A552A007F2A552A74
:10040000551C000011241FBECFE5D4E0DEBFCDBFD8
:1004100010E0A0E6B0E0ECECFFE102C005900D9228
:10042000A239B107D9F712E0A2E9B0E001C01D92EC
:10043000A73BB107E1F705D2C7CDE2CDFC014115DD
:10044000510581F081E090E09C0102C0220F331F32
:100450006A95E2F7B90180819181682B792B7183CC
:100460006083089581E090E09C0102C0220F331F59
:100470006A95E2F7B9016095709580819181682352
:1004800079237183608308951F93182F82E390E08E
:1004900067E070E040E050E0D1DF1FB9779BFECF0E
:1004A0001F9108951F93182F82E390E067E070E09A
:1004B00041E050E0C3DF1FB9779BFECF1F91089545
:1004C000CF93DF93EB018435910510F48068DCDF76
:1004D000C630D10518F4CE018064D6DFDF91CF910C
:1004E00008958535F0F46133E0F4E62FE695E6955E
:1004F000E69594E5E99FF0011124E80FF11DE3541E
:10050000FF4F677081E090E09C0102C0220F331F13
:100510006A95E2F7B9018081682B608381E080935E
:10052000BC0008952F923F924F925F926F927F92FC
:100530008F929F92AF92BF92CF92DF92EF92FF92F3
:100540000F931F93DF93CF9300D000D00F92CDB7BE
:10055000DEB7F02EA82EBB24242E33243A82298223
:10056000A214B3040CF057C08501862E9924C22E24
:10057000DD24C401E82E9B833101089461087108D1
:10058000260108944108510882E090E08C839D8305
:100590008C149D04C4F52E2D3B8119012F2D223082
:1005A00049F10A151B0531F12814390419F16016B7
:1005B000710601F142145304E9F02330F0F02430C5
:1005C00018F06C817D8104C083E090E0682F792F62
:1005D000C801D3DCFC01C10162E070E0CEDC9C010B
:1005E00081E090E02130310511F080E090E0E817E3
:1005F000F90719F0802F622D74DF0894211C311C3B
:100600002C143D045CF20F5F1F4F89819A810817FB
:1006100019070CF4BDCF0F900F900F900F900F9013
:10062000CF91DF911F910F91FF90EF90DF90CF90CE
:10063000BF90AF909F908F907F906F905F904F9002
:100640003F902F9008952F923F924F925F926F921A
:100650007F928F929F92AF92BF92CF92DF92EF9252
:10066000FF920F931F93DF93CF9300D000D00F9290
:10067000CDB7DEB7582E962E79018A01CA01B9018D
:10068000CFDBAEDA5B01C801B7019058A9DA6B0184
:10069000B601882777FD8095982FD5DA69837A830C
:1006A0008B839C83A801970194DA882374F147C057
:1006B000229CC001239C900D329C900D11248C0D26
:1006C0009D1D8A159B0524F4622D690D882D09DF77
:1006D0000894211C311CB101882777FD8095982F43
:1006E000B2DAA801970175DA882314F30894611C23
:1006F000711CB301882777FD8095982FA4DAA80193
:10070000970167DA88232CF01AC0360196014C2C29
:100710003D83C801B70129813A814B815C817CDB33
:10072000181624F7669C6001679CD00C769CD00C50
:100730001124242D3D811901852C860CB9CF0F90F1
:100740000F900F900F900F90CF91DF911F910F910D
:10075000FF90EF90DF90CF90BF90AF909F908F90E1
:100760007F906F905F904F903F902F900895CF9221
:10077000DF92EF92FF920F931F93CF93DF938C0141
:10078000DC018C91882311F178010894E11CF11CA3
:10079000CC24DD2419C0D801EC91B5E0EB9FF00129
:1007A0001124EC0FFD1FEC55F040849190E07ADEAF
:1007B0002196C530D10579F7C60174DE8701F701AE
:1007C00081917F01882311F0E601E5CFDF91CF9180
:1007D0001F910F91FF90EF90DF90CF900895EDEB78
:1007E000F0E085EB92E01192E817F907E1F7089540
:1007F000CF93DF93EC0185E390E063E070E040E0AD
:1008000050E01CDE209751F08FEF93ECA9E081506F
:100810009040A040E1F700C0000009C08FE798E3D6
:10082000A1E081509040A040E1F700C0000085E3C6
:1008300090E063E070E041E050E000DEDF91CF91B6
:1008400008952F923F924F925F926F927F928F9274
:100850009F92AF92BF92CF92DF92EF92FF920F934F
:100860001F93DF93CF93CDB7DEB7C155D0400FB6FE
:10087000F894DEBF0FBECDBF1092B6021092B50243
:1008800085E390E063E070E041E050E0D7DD81EC8B
:1008900081BB88E084BB8CE287BB82B38A6182BB68
:1008A00081E58DB982E390E066E070E040E050E0E1
:1008B000C5DD8FE097E20197F1F700C0000082E309
:1008C00090E066E070E041E050E0B8DD81E290E069
:1008D000DBDD8CEB90E0D8DD84E090E0D5DD84E1D9
:1008E00090E0D2DD80E290E0CFDD8CE090E0CCDDE6
:1008F00008EF11E080E090E0D5DD01501040D1F725
:1009000082E390E060E070E041E050E097DD89E054
:1009100090E061E070E0D4DD80E690E028DF8FE0D9
:1009200090E064E070E0CCDD8CE690E020DF2FEF1B
:1009300032E745E5215030404040E1F700C000007B
:100940000F2EFAE0EF2EFF24F02D8E010F5F1F4FC8
:1009500021C08091B5029091B60201969093B602A3
:100960008093B5020196B70108DB605D6983805D05
:100970008A831B8284E290E063E070E0A1DDC8011D
:10098000F6DE4FEF53EC69E0415050406040E1F734
:1009900000C00000819BDDCF81E08093BC002D96DC
:1009A0001FAE1EAE2D9763E070E07AAF69AF82E0B4
:1009B00090E09A8B898BADEBB0E011966296BFAF59
:1009C000AEAF62970F2EF7E08F2E9924F02DB1E095
:1009D000BDA7E2E06096EFAF609782E990E02E96C7
:1009E0008FAF2E972F969FAF2F978091BC008823B3
:1009F00009F4B7C080E090E060E070E061DD298933
:100A00003A892130310509F45DC82115310509F015
:100A10006AC049AD5AAD141615060CF453C81BC074
:100A2000D7012D917D0130E0B1E0033F1B0744F079
:100A3000F601E00FF11FEC5BFF4F849190E001C0E5
:100A4000C501822B932B2EDD0F5F1F4FE1E0083F86
:100A50001E0731F783C08FE090E062E070E030DD88
:100A600086E790E084DE7AC0F1E0043A1F0754F193
:100A7000C80164E570E081DA9C01009729F18335B3
:100A8000910529F18130910529F18235910529F1EE
:100A9000220F331F220F331FC901880F991F880FA0
:100AA000991F880F991F821B930B64E570E065DA2C
:100AB0008091B5029091B602681779078CF48DEB9E
:100AC00090E017C0C70115C08FEF90E012C08FEF04
:100AD00090E00FC081E890E00CC081E890E009C090
:100AE00081E890E006C000E010E080E090E0EE24B5
:100AF000FF24D8DC0F5F1F4F21E0083F120709F0E9
:100B0000B3CF84E190E062E070E0DADC8091B5027E
:100B10009091B6028C319105F4F4FE013196A9E86A
:100B2000B0E029E00D9001922150E1F78930910564
:100B30001CF48F5C8F830BC001966AE070E01DDAB5
:100B4000282F862F805D8F83822F805D8887CE013E
:100B500001960DDE03C080E890E009DE1092BC0033
:100B60003EDE49895A894115510529F04230510527
:100B700009F0ACC10AC009AD1AAD0150104069AD11
:100B80007AAD1616170624F007C009AD1AAD04C0D9
:100B900081E090E09A8B898BAB8DBC8DA930B1053B
:100BA00084F0E989FA89E130F10559F41897BC8F8E
:100BB000AB8F81E090E0309711F080E090E018DE9C
:100BC00043C029893A892230310501F580E090E05F
:100BD0000FDE4FE755EB61E0415050406040E1F7D8
:100BE00000C0000080E090E003DE6FE775EB81E07D
:100BF000615070408040E1F700C0000080E090E06C
:100C0000F7DD1AAF09AF1C8E1B8E26C081E090E085
:100C1000A989BA89109711F080E090E0E9DDE989AF
:100C2000FA89309779F42D962EAD3FAD2D973093FC
:100C3000B6022093B50243E050E05AAF49AF1C8E94
:100C40001B8E0AC01C8E1B8E69897A8961307105E2
:100C500009F4DBC01AAF09AF8091B5029091B602DA
:100C6000880F991F7C01EE0CFF1CEE0CFF1CEE0C94
:100C7000FF1CE80EF91E0F2EF6E0CF2EDD24F02D1E
:100C8000CE0CDF1C0F2EFCE0AF2EBB24F02DAE0CE3
:100C9000BF1C02E910E020E030E077242501BDA46C
:100CA0006096AFAC6097C901B40167D9FB01EE0D46
:100CB000FF1DE55FFD4FE491A6E0B0E0A81BB90B76
:100CC000F0E00A2E02C0F595E7950A94E2F7E0FD00
:100CD00021C0FB01EC0DFD1DE55FFD4F449150E08F
:100CE0000A2E02C0559547950A94E2F740FD14C0BC
:100CF000640D751DFB01E55FFD4F449150E0FA0165
:100D00000A2E02C0F595E7950A94E2F7E0FF06C0C7
:100D100084E005C08B2D03C08A2D01C0872DD8012A
:100D20008D938D012F5F3F4F2A32310509F0BBCFE4
:100D30002FEF3EE944E2215030404040E1F700C04F
:100D400000008091B5029091B6028C3191050CF4AF
:100D50008BC003E010E0C80183709070009721F011
:100D600080E090E045DD09C04FE758E361E0415085
:100D700050406040E1F700C000006FE77CE283E094
:100D8000615070408040E1F700C000000F5F1F4FCE
:100D90000231110501F782E390E060E070E040E08D
:100DA00050E04CDB1CAA1BAA1DA21EA278E27FA366
:100DB00082E488A720E030E048E252EC21962CAF94
:100DC0003DAF4EAF5FAF21974AE057ED63EA7CE35A
:100DD0004DAB5EAB6FAB78AF6DEC7CEC8CE49FE31E
:100DE00069A37AA38BA39CA31D8A1E8A78E27F8BBA
:100DF00082E4888F1A861B867C878D871CAE1BAE8B
:100E0000A3E0B0E0BA8BA98B61C01AAF09AF1CAAEE
:100E10001BAA1DA21EA2B8E2BFA3E2E4E8A720E03D
:100E200030E048E252EC21962CAF3DAF4EAF5FAFC1
:100E300021974AE057ED63EA7CE34DAB5EAB6FABC5
:100E400078AF6DEC7CEC8CE49FE369A37AA38BA371
:100E50009CA31D8A1E8ABF8BE88F1A861B86BC87BF
:100E6000ED871CAE1BAE32C01CAA1BAA1DA21EA27F
:100E700078E27FA382E488A720E030E048E252ECE9
:100E800021962CAF3DAF4EAF5FAF21974AE057EDB3
:100E900063EA7CE34DAB5EAB6FAB78AF6DEC7CECA3
:100EA0008CE49FE369A37AA38BA39CA31D8A1E8A6B
:100EB00078E27F8B82E4888F1A861B867C878D87F9
:100EC0001CAE1BAEA1E0B0E0BA8BA98BEFEDFEE249
:100ED0003197F1F700C000002B8D3C8D21153105B5
:100EE00039F480E060E044E521E002E01BDB08C06B
:100EF0002B8D622F61502F5F80E044E502E012DB12
:100F000000E010E080E0602FECDA83E5602FE9DAA2
:100F10000F5F1F4F0A321105A9F75DA14EA13FA136
:100F200028A5652F742F832F922F20E030E040E01A
:100F300051E4EAD522966FAF229723967FAF23978D
:100F400024968FAF249725969FAF25975DA14EA13C
:100F50003FA128A5652F742F832F922F20E030E02A
:100F600040E051E4D2D528966FAF289729967FAFFD
:100F700029972A968FAF2A972B969FAF2B97229669
:100F80005FAD229723964FAD239724963FAD2497CC
:100F900025962FAD2597652F742F832F922F25D659
:100FA000162F28965FAD289729964FAD29972A9638
:100FB0003FAD2A972B962FAD2B97652F742F832F3C
:100FC000922F13D6462F812F6DE220E301E0AADA9B
:100FD0005A854B853C852D85652F742F832F922F45
:100FE00004D6162F5D894E893F89288D652F742F71
:100FF000832F922FFAD5812F2DEC3CEC4CE250E45C
:1010000022DB0F2EF2E9EF2EF0E0FF2EF02D2E96D0
:10101000AFAC2E972F96BFAC2F97CC24DD241B8D21
:10102000612E63944B8C5C8C089441085108170125
:10103000712ED5010D915D01002309F45AC0C6013E
:10104000B4019BD79B01FC01CB010196880F991F2E
:10105000880F991FAC01440F551F440F551F440FB3
:10106000551F840F951F66E070E087D77B0144E52C
:1010700050E0E49FC001E59F900DF49F900D112476
:10108000B4017BD7162F220F331F220F331FC90144
:10109000880F991F880F991F880F991F820F931F20
:1010A00066E070E06AD7362D360F319664E570E061
:1010B000E69FC001E79F900DF69F900D1124B401AB
:1010C0005CD7462F272D2E0D812F8F5F632F2ADAB5
:1010D000E40CF51CB701882777FD8095982FB3D5D0
:1010E00020E030E044E352E497D6181614F41A8A4C
:1010F000198A0894C11CD11C7AE2C716D10409F0E0
:1011000098CF71018BAD9CAD009751F12A853B853D
:101110004C855D85622F732F842F952F2DA93EA9B5
:101120004FA958ADF2D46A877B878C879D872D891C
:101130003E894F89588D622F732F842F952F2196CA
:101140002CAD3DAD4EAD5FAD2197DFD46D8B7E8B69
:101150008F8B988FABA9BCA91196BCABABAB0EC063
:10116000BDA1BA87EEA1EB87FFA1FC8728A52D873B
:101170001D8A1E8A38E23F8B42E4488F8091B50277
:101180009091B6028130910561F08430910561F053
:101190008431910561F08631910561F488E290E037
:1011A0000BC088E290E008C088E290E005C088E2C9
:1011B00090E002C088E790E06BA97CA986179707AA
:1011C0003CF48B8D9C8D01969C8F8B8F1CAA1BAA47
:1011D00027961FAE1EAE2797A1E0B0E0BA8FA98F69
:1011E00000E010E0CD845701F701D080DD2009F444
:1011F00006C2C801B401C1D69C0144E550E0249F59
:10120000C001259F900D349F900D1124B401B5D6D7
:101210003B016F5F7F4F882777FD8095982F13D50F
:101220001B012C015A854B853C85652F742F832F1C
:101230009C2D2DEC3CEC4CE250E467D4A2019101D2
:10124000EBD518160CF0D5C1B301645F7F4F88272A
:1012500077FD8095982FF7D46D877E878F87988B41
:101260005A854B853C85652F742F832F9C2D2DEC43
:101270003CEC4CE250E448D42D853E854F8558899E
:10128000A8D488230CF0B5C1C801B40176D6660F86
:10129000771F660F771FCB01880F991F880F991F43
:1012A000880F991F860F971F66E070E066D68B8DBA
:1012B0009C8D860F971F9C8B8B8BBC016F5F7F4F24
:1012C000882777FD8095982FBED46D8F7E8F8F8F66
:1012D00098A35D894E893F89288D652F742F832FB0
:1012E000922F2DEC3CEC4CE250E40FD42D8D3E8D32
:1012F0004F8D58A191D518160CF07BC16B897C8954
:101300006A5F7F4F882777FD8095982F9CD469A7C7
:101310007AA78BA79CA72D893E894F89588D622F6C
:10132000732F842F952F2DEC3CEC4CE250E4ECD342
:1013300029A53AA54BA55CA54CD488230CF059C12E
:101340009D2D923019F4D7011C9206C0BD2DB330EB
:1013500018F0DA94F701D0826B897C896D5F7F4F3A
:10136000882777FD8095982F6ED420E030E040E00C
:101370005FE3CBD3D62E7B8B8EA79FA7B3016A5F8B
:101380007F4F882777FD8095982F5DD420E030E04F
:1013900040E05FE3BAD39B01AC01EA85FB85AC85F5
:1013A0006E2F7F2F8A2F9C2DAFD3662E78AB89AB03
:1013B0009AAB5D894E893F89288D652F742F832FC5
:1013C000922FFB89AEA5BFA52D2D3F2F4A2F5B2F56
:1013D0009BD325EF37E742EF5FE322D59B01AC01BA
:1013E0007DA4F8A9A9A9BAA9662D7F2F8A2F9B2FC2
:1013F00013D518160CF077244B893EA52FA56D2D1B
:10140000742F832F922FED89FE89AF89B88D2E2FEF
:101410003F2F4A2F5B2F78D325EF37E742EF5FE36B
:10142000FFD49B01AC01DDA4F8A9A9A9BAA9662D36
:101430007F2F8A2F9B2FF0D418160CF0DD247720F5
:1014400019F0DD2019F435C0DD2099F527962EAD71
:101450003FAD27972115310509F05FC04DA95EA961
:101460006FA978AD70584DAB5EAB6FAB78AF69A12B
:101470007AA18BA19CA12AE037ED43EA5BE345D337
:10148000572F282F392F862F952FA22FB32F89A3BF
:101490009AA3ABA3BCA385E390E063E070E040E0D7
:1014A00050E0CCD761E070E027967FAF6EAF279712
:1014B00034C027968EAD9FAD2797009771F5219682
:1014C0002CAD3DAD4EAD5FAD2197505821962CAF60
:1014D0003DAF4EAF5FAF219769A17AA18BA19CA1CF
:1014E0002AE037ED43EA5BE310D3572F282F392F3B
:1014F000862F952FA22FB32F89A39AA3ABA3BCA3AA
:1015000085E390E063E070E040E050E097D741E091
:1015100050E027965FAF4EAF27978D2D8721C9F0FA
:101520006D857E858F8598892DEC3CEC4CE250E4EE
:10153000ECD29B01AC01E9D2FA85EB85AC852F2F6B
:101540003E2F4A2F5C2DE0D26A877B878C87C92E7D
:1015500050C07720C9F4DD2099F5C201B1012DEC0E
:101560003CEC4CE250E4D0D29B01AC01CED2EA85F7
:10157000FB85AC852E2F3F2F4A2F5C2DC5D26A8765
:101580007B878C87C92E35C0DD20D1F46D8D7E8D93
:101590008F8D98A12DEC3CEC4CE250E4B5D29B0130
:1015A000AC01B3D2ED89FE89AF89B88D2E2F3F2FC4
:1015B0004A2F5B2FA9D26D8B7E8B8F8B988F19C092
:1015C00069A57AA58BA59CA52DEC3CEC4CE250E4DA
:1015D0009CD29B01AC0199D2ED89FE89AF89B88D6F
:1015E0002E2F3F2F4A2F5B2F8FD26D8B7E8B8F8BB1
:1015F000988FD5018C91823010F01A8E198E0F5F62
:101600001F4F0894E11CF11C0A32110509F0EBCDC3
:10161000CD8679A06AA05BA04CA01D890E89FF88A9
:10162000E88CDA84CB84BC84AD84E98DFA8D309764
:10163000E9F08091B5029091B60201969093B602BE
:101640008093B5022D962EAD3FAD2D972817390703
:101650002CF042E050E05A8B498B08C02D969FAF8A
:101660008EAF2D9762E070E07A8B698B612F702FBF
:101670008F2D9E2D23E333E349E252E4CDD3181698
:101680000CF0B3C0612F702F8F2D9E2D20E030E025
:1016900040E452E49ED288230CF0A7C06D2D7C2D2F
:1016A0008B2D9A2D2DEC3CEC4CE250E42ED29B017C
:1016B000AC012296EFAD22972396FFAD2397249697
:1016C000AFAD24972596BFAD25976E2F7F2F8A2F1C
:1016D0009B2F7FD288230CF088C06D2D7C2D8B2D05
:1016E0009A2D2DEC3CEC4CE250E40ED29B01AC0167
:1016F0002896EFAD28972996FFAD29972A96AFAD8A
:101700002A972B96BFAD2B976E2F7F2F8A2F9B2F5B
:1017100083D318160CF069C0672D762D852D942D76
:101720002FE632E143E05CE3F0D1762E672E582EAF
:10173000492E862F962DA52DB42D89A39AA3ABA350
:10174000BCA385E390E063E070E040E050E076D633
:101750006D2D7C2D8B2D9A2DEDA1FEA1AFA1B8A5ED
:101760002E2F3F2F4A2F5B2FCFD120E030E040E0DB
:101770005EE356D3362E272E8D8B9E8B2ED2272DB1
:10178000362D452D542D4CD3572F282F392F862FEA
:10179000952FA22FB32F7C018D014D895E89632D7A
:1017A000722D842F952F9FD3272D362D452D542D07
:1017B00037D3572F282F392F862F952FA22FB32FAE
:1017C0008DAB9EABAFABB8AFD801C701B058219677
:1017D0008CAF9DAFAEAFBFAF219793E39D8B9E8B38
:1017E000A9E2AF8BB2E4B88F10C0612F702F8F2D9C
:1017F0009E2D2AE939E945E552E40ED318162CF45A
:10180000EDA5E093BC001A8A198A6D2D7C2D8B2DD5
:101810009A2D2AE939E942EA52E4FED218168CF5EB
:101820006AE979E982E293E42D2D3C2D4B2D5A2D66
:101830006BD16A877B878C879D872DA93EA94FA98D
:1018400058AD50582DAB3EAB4FAB58AF69A17AA104
:101850008BA19CA12AE037ED43EA5BE356D1572FD9
:10186000382F292F862F952FA32FB22F89A39AA324
:10187000ABA3BCA385E390E063E070E040E050E000
:10188000DDD55A854B853C852D85652F742F832F9B
:10189000922F2DEC3CEC4CE250E49BD18823ACF52C
:1018A0006DEC7CEC8CEA90E4EA85FB85AC85BD852B
:1018B0002E2F3F2F4A2F5B2F27D16A877B878C875C
:1018C0009D874DA95EA96FA978AD70584DAB5EABF1
:1018D0006FAB78AF69A17AA18BA19CA12AE037ED0B
:1018E00043EA5BE312D1572F382F292F862F952FEC
:1018F000A32FB22F89A39AA3ABA3BCA385E390E047
:1019000063E070E040E050E099D5AB8DBC8DBD0147
:10191000882777FD8095982F96D12DEC3CEC4CE2F2
:1019200050E4F3D0162F072FF82EE92EBD89AE898B
:10193000FF89E88D2B2F3A2F4F2F5E2F6DD218166F
:10194000F4F5212F302F4F2D5E2D612F702F8F2D0D
:101950009E2DDBD0ED89FE89AF89B88D2E2F3F2FCC
:101960004A2F5B2FD1D06D8B7E8B8F8B988F2196DA
:101970002CAD3DAD4EAD5FAD2197505821962CAFAB
:101980003DAF4EAF5FAF219769A17AA18BA19CA11A
:101990002AE037ED43EA5BE3B8D0572F382F292FE1
:1019A000862F952FA32FB22F89A39AA3ABA3BCA3F5
:1019B00085E390E063E070E040E050E03FD581993E
:1019C00014C04BAD5CAD4115510579F469A17AA104
:1019D0008BA19CA1905821966CAF7DAF8EAF9FAF2D
:1019E000219781E090E09CAF8BAF849918C069A1EA
:1019F0007AA18BA19CA12AE939E949E15FE385D06D
:101A00009B01AC01EDA1FEA1AFA1B8A56E2F7F2F68
:101A10008A2F9B2F7AD06DA37EA38FA398A783993B
:101A200018C069A17AA18BA19CA12AE939E949E1F1
:101A30005FE36BD09B01AC01EDA1FEA1AFA1B8A506
:101A40006E2F7F2F8A2F9B2F5FD06DA37EA38FA336
:101A500098A75DA14EA13FA128A5652F742F832FC4
:101A6000922F20E030E048E952E4D6D1181684F0F5
:101A70002DA13EA14FA158A5622F732F842F952F22
:101A800020E030E040E051E4A4D0882344F00CC0D2
:101A90001DA21EA298E99FA3A2E4A8A705C01DA2AB
:101AA0001EA21FA2B1E4B8A785E390E063E070E056
:101AB00041E050E0C3D4E989FA89E330F10509F047
:101AC00094C721C0ADEBB0E02C9130E089AD9AAD68
:101AD000880F991F880F991F49AD5AAD480F591F9C
:101AE0006296EEACFFAC629700E010E080E090E020
:101AF000AA24BB240F2EFDE5CF2EFEEFDF2EF02D06
:101B0000C40ED51E9EC7FFCF5058BB27AA270ED0A4
:101B100038C101D130F006D120F031F49F3F11F4EB
:101B20001EF4F6C00EF4E095E7FBECC0E92F4BD1B4
:101B300080F3BA17620773078407950718F071F4EA
:101B40009EF563C10EF4E0950B2EBA2FA02D0B016C
:101B5000B90190010C01CA01A0011124FF27591BF2
:101B600099F0593F50F4503E68F11A16F040A22FF8
:101B7000232F342F4427585FF3CF46953795279569
:101B8000A795F0405395C9F77EF41F16BA0B620B68
:101B9000730B840BBAF09150A1F0FF0FBB1F661FAF
:101BA000771F881FC2F70EC0BA0F621F731F841FF2
:101BB00048F4879577956795B795F7959E3F08F018
:101BC000B3CF9395880F08F09927EE0F97958795D7
:101BD000089574D008F481E00895ACD0E395E2C094
:101BE00004D06894B11112C10895F5D088F09F57C0
:101BF00090F0B92F9927B751A0F0D1F0660F771F59
:101C0000881F991F1AF0BA95C9F712C0B13081F038
:101C1000FCD0B1E00895F9C0672F782F8827B85F0E
:101C200039F0B93FCCF3869577956795B395D9F799
:101C30003EF490958095709561957F4F8F4F9F4FA3
:101C40000895E89409C097FB3EF4909580957095AF
:101C500061957F4F8F4F9F4F9923A9F0F92F96E9F8
:101C6000BB279395F695879577956795B795F1116D
:101C7000F8CFFAF4BB0F11F460FF1BC06F5F7F4F0A
:101C80008F4F9F4F16C0882311F096E911C077231C
:101C900021F09EE8872F762F05C0662371F096E825
:101CA000862F70E060E02AF09A95660F771F881FF4
:101CB000DAF7880F9695879597F90895990F000898
:101CC000550FAA0BE0E8FEEF16161706E807F9070E
:101CD000C0F012161306E407F50798F0621B730BA9
:101CE000840B950B39F40A2661F0232B242B252B2A
:101CF00021F408950A2609F4A140A6958FEF811DCD
:101D0000811D089597F99F6780E870E060E008956D
:101D10009FEF80EC089500240A9416161706180603
:101D20000906089500240A941216130614060506DF
:101D30000895EECF50D0E8F3E894E0E0BB279F573A
:101D4000F0F02AED3FE049EC06C0EE0FBB0F661F36
:101D5000771F881F28F0B23A62077307840728F0BC
:101D6000B25A620B730B840BE3959A9572F7803825
:101D700030F49A95BB0F661F771F881FD2F79048E3
:101D8000BAC0092E0394000C11F4882352F0BB0F43
:101D900040F4BF2B11F460FF04C06F5F7F4F8F4F83
:101DA0009F4F0895EF93E0FF06C0A2EA2AED3FE0BF
:101DB00049EC5FEBBBDEE5DF0F90039401FC90582C
:101DC000E6E2F0E0A4C057FD9058440F551F59F0CB
:101DD0005F3F71F04795880F97FB991F61F09F3F18
:101DE00079F087950895121613061406551FF2CF41
:101DF0004695F1DF08C0161617061806991FF1CF91
:101E000086957105610508940895E894BB276627B7
:101E10007727CB0197F9089551DF08F48FEF0895E4
:101E20000BD0AFCF78DF28F07DDF18F0952309F0D5
:101E300069CF6ECF1124EACFC6DFA0F3959FD1F30F
:101E4000950F50E0551F629FF001729FBB27F00D68
:101E5000B11D639FAA27F00DB11DAA1F649F6627BD
:101E6000B00DA11D661F829F2227B00DA11D621F0C
:101E7000739FB00DA11D621F839FA00D611D221FC6
:101E8000749F3327A00D611D231F849F600D211DAA
:101E9000822F762F6A2F11249F5750408AF0E1F04D
:101EA00088234AF0EE0FFF1FBB1F661F771F881F96
:101EB00091505040A9F79E3F510570F023CFA6CF17
:101EC0005F3FECF3983EDCF3869577956795B79581
:101ED000F795E7959F5FC1F7FE2B880F911D9695AB
:101EE000879597F908959F9325DF0F9007FCEE5F84
:101EF00059CF9F3F31F0915020F4879577956795A2
:101F0000B795880F911D9695879597F908959F939A
:101F10008F937F936F93FF93EF939B01AC0180DFCF
:101F2000EF91FF9105D02F913F914F915F9178CF25
:101F3000DF93CF931F930F93FF92EF92DF927B017A
:101F40008C01689405C0DA2EEF0176DFFE01E8947B
:101F5000A5912591359145915591AEF3EF01E6DDBF
:101F6000FE019701A801DA9479F7DF90EF90FF90D6
:101F70000F911F91CF91DF91089597FB092E0726AE
:101F80000AD077FD04D00CD006D000201AF470954A
:101F900061957F4F0895F6F7909581959F4F08952D
:101FA000AA1BBB1B51E107C0AA1FBB1FA617B7077F
:101FB00010F0A61BB70B881F991F5A95A9F780959B
:0C1FC0009095BC01CD010895F894FFCF6E
:101FCC0042414C4C20424F554E43450062792041D2
:101FDC006E647920460047414D45204F56455200CE
:101FEC00596F752077696E21004C6576656C2020E1
:021FFC002000C3
:00000001FF
